:100000000C945D000C9485000C9485000C94850084
:100010000C9485000C9485000C9485000C9485004C
:100020000C9485000C9485000C9485000C9485003C
:100030000C9485000C9485000C9485000C9485002C
:100040000C94F3020C9485000C9485000C948500AC
:100050000C9485000C9485000C9485000C9485000C
:100060000C9485000C9485000000000024002700FB
:100070002A0000000000250028002B0004040404CE
:100080000404040402020202020203030303030342
:10009000010204081020408001020408102001021F
:1000A00004081020000000080002010000030407FB
:1000B0000000000000000000AC0411241FBECFEFC0
:1000C000D8E0DEBFCDBF11E0A0E0B1E0ECE7FDE09D
:1000D00002C005900D92A432B107D9F721E0A4E245
:1000E000B1E001C01D92A934B207E1F710E0CDE5FF
:1000F000D0E004C02197FE010E94B606CC35D1079E
:10010000C9F70E943D030C94BC060C940000AF920A
:10011000BF92CF92DF92EF92FF920F931F93CF93F4
:10012000DF936C017B018B01040F151FEB015E0156
:10013000AE18BF08C017D10759F06991D601ED91EB
:10014000FC910190F081E02DC6010995892B79F78A
:10015000C501DF91CF911F910F91FF90EF90DF903C
:10016000CF90BF90AF90089590E0FC01EC55FF4F09
:100170002491FC01E057FF4F3491FC01E458FF4FFC
:10018000E491EE23C9F0222339F0233001F1A8F4E1
:10019000213019F1223029F1F0E0EE0FFF1FEE5867
:1001A000FF4FA591B4918FB7F894EC91611126C0DF
:1001B00030953E233C938FBF08952730A9F0283017
:1001C000C9F0243049F7809180008F7D03C0809171
:1001D00080008F7780938000DFCF84B58F7784BDD8
:1001E000DBCF84B58F7DFBCF8091B0008F7780937C
:1001F000B000D2CF8091B0008F7DF9CF3E2BDACF07
:10020000CF93DF9390E0FC01E057FF4F2491845897
:100210009F4FFC0184918823D1F090E0880F991FB3
:10022000FC01E859FF4FA591B491FC01EE58FF4F36
:10023000C591D49161110EC09FB7F8948C91E22FB3
:10024000E0958E238C932881E223E8839FBFDF9182
:10025000CF9108958FB7F894EC91E22BEC938FBF78
:10026000F6CF3FB7F8948091290190912A01A0918F
:100270002B01B0912C0126B5A89B05C02F3F19F08A
:100280000196A11DB11D3FBFBA2FA92F982F882716
:10029000BC01CD01620F711D811D911D42E0660FF1
:1002A000771F881F991F4A95D1F70895089590E008
:1002B00080E00895FC0101900020E9F73197AF013B
:1002C000481B590BBC0181E391E00C9487008F928D
:1002D0009F92AF92BF920F931F93CF93DF93CDB7AF
:1002E000DEB7A1970FB6F894DEBF0FBECDBF19A23F
:1002F000423008F44AE08E010F5D1F4F842E912C8E
:10030000B12CA12CA50194010E949406E62FB901FD
:10031000CA01EA30F4F4E05DD801EE938D01232B9D
:10032000242B252B79F790E080E0109719F0CD0170
:100330000E945A01A1960FB6F894DEBF0FBECDBF42
:10034000DF91CF911F910F91BF90AF909F908F90B1
:100350000895E95CE1CFCF93DF93EC0160E08E81FB
:100360000E94B40061E08E810E94B40060E08E8142
:100370000E94B4008BE891E00197F1F7DF91CF91F3
:100380000895CF92DF92EF92FF920F931F93CF9336
:10039000DF936C017C0187E0E80EF11CD0E0C0E047
:1003A000062F10E0B8010C2E02C0759567950A94CF
:1003B000E2F76170F70181917F010E94B4002196FC
:1003C000C430D10579F7C601DF91CF911F910F910C
:1003D000FF90EF90DF90CF900C94AB01CF92DF9223
:1003E000EF92FF920F931F93CF93DF93EC01F62EC2
:1003F000642F8C810E94B4008D818F3F19F060E0E2
:100400000E94B4000F2D10E08F8584FF25C06E017F
:1004100087E0C80ED11CF12CE12CB8010E2C02C0D3
:10042000759567950A94E2F76170F60181916F0105
:100430000E94B400FFEFEF1AFF0A88E0E816F1040B
:1004400061F7CE01DF91CF911F910F91FF90EF9057
:10045000DF90CF900C94AB01B80184E0759567955F
:100460008A95E1F7CE010E94C1016F2DCE01DF9187
:10047000CF911F910F91FF90EF90DF90CF900C9450
:10048000C10140E0682F81E391E00C94EE01CF932D
:10049000DF93823029F4909140019860909340015D
:1004A000809344011092450180E48093460180E1ED
:1004B0008093470180E58093480161E08091350198
:1004C0000E940001809136018F3F19F061E00E9487
:1004D000000161E0809137010E940001C1E3D1E099
:1004E0009E01215331408091400184FD0BC084E086
:1004F00090E021962817390744F461E08E810E942C
:100500000001EECF88E090E0F4CF8BE39DE001970F
:10051000F1F760E0809135010E94B40060E08091C5
:1005200037010E94B400809136018F3F19F060E0DE
:100530000E94B4008091400184FD39C063E081E3F2
:1005400091E00E94C101CBE4D6E4CE010197F1F71E
:1005500063E081E391E00E94C1012197F1F763E03C
:1005600081E391E00E94C10183E592E00197F1F7F8
:1005700062E081E391E00E94C101809140018062CC
:100580000E94410284E0809341018CE00E9441027C
:1005900081E00E9441028BE39FE10197F1F782E045
:1005A0008093420186E0DF91CF910C9441028062FA
:1005B0000E9441028BE496E40197F1F7809140019B
:1005C00080620E94410283E592E00197F1F78091F9
:1005D000400180620E944102D0CF41E00E94EE01C2
:1005E00081E090E008951F920F920FB60F921124B0
:1005F0002F933F938F939F93AF93BF938091250148
:1006000090912601A0912701B091280130912401F9
:1006100023E0230F2D3758F50196A11DB11D20931E
:1006200024018093250190932601A0932701B09384
:1006300028018091290190912A01A0912B01B0916C
:100640002C010196A11DB11D8093290190932A01CF
:10065000A0932B01B0932C01BF91AF919F918F91EB
:100660003F912F910F900FBE0F901F90189526E885
:10067000230F0296A11DB11DD2CF789484B582605C
:1006800084BD84B5816084BD85B5826085BD85B536
:10069000816085BD80916E00816080936E001092B4
:1006A000810080918100826080938100809181002F
:1006B00081608093810080918000816080938000C0
:1006C0008091B10084608093B1008091B00081601E
:1006D0008093B00080917A00846080937A0080914A
:1006E0007A00826080937A0080917A0081608093A2
:1006F0007A0080917A00806880937A001092C1001D
:1007000060E08EE00E94000182E00E944702CBE39D
:10071000DFE190E4B92E00E010E081E00E944102A8
:10072000CE010197F1F7B0927C0080917A0080644D
:1007300080937A0080917A0086FDFCCF80917800CA
:1007400060917900762F682F072E000C880B990B8B
:100750000E946D052EE839E346E65EE30E9422061C
:1007600060932D0170932E0180932F01909330019F
:10077000E1E0809144018111E0E0E195F0E0EF5C7F
:10078000FE4F848980680E9441028CE091E00E94C3
:100790005A01E0914401E23008F048C0E150F0E035
:1007A000EF5CFE4F848980680E944102C0902D0159
:1007B000D0902E01E0902F01F0903001A70196011A
:1007C000C701B6010E948F06882391F187E191E06D
:1007D0000E945A010E9431012B013C0184EFC82E76
:1007E000DD24D394E12CF12C0E94310164197509A8
:1007F00086099709683E734081059105A8F321E0B9
:10080000C21AD108E108F10888EE480E83E0581EAC
:10081000611C711CC114D104E104F10429F7011514
:10082000110509F47ACF0E94000077CFE1E0B7CF3D
:1008300026013701E89477F82FEF3FEF4FE75FE7A6
:10084000C301B2010E948F0681110DC02FEF3FEF4F
:100850004FE75FE7C301B2010E94370518161CF489
:100860008BE191E0B5CF2FEF3FEF4FE75FE4C7019A
:10087000B6010E941D0618161CF48FE191E0A8CF66
:100880002FEF3FEF4FE75FECC701B6010E9437053E
:1008900087FDF3CF20E030E0A901C701B6010E9437
:1008A000370587FF0AC041E06DE281E391E00E94D5
:1008B000EE01F7FAF094F7F8F0942AE037ED43EA06
:1008C0005BE3C701B6010E94CB042B013C010E94EF
:1008D0003C056B017C010E946B059B01AC01C301CF
:1008E000B2010E94CA042B013C014AE0C701B601D3
:1008F0000E94670141E06EE281E391E00E94EE0117
:1009000020E030E040E251E4C301B2010E9422063F
:100910002B013C010E943C056B01F12CE12C4AE0CB
:10092000C701B6010E946701C701B6010E946B05AD
:100930009B01AC01C301B2010E94CA0420E030E077
:1009400040E251E40E9422060E943C0590E080E0D3
:100950004AE00E9467013ECFE1E3F1E01382128298
:1009600084E091E09183808382E084838FEF8583AC
:1009700083E0868384E0878385E0808786E08187C3
:1009800087E082871386148615861686178681E08F
:100990000C9447025058BB27AA270E94E2040C94EB
:1009A000E3050E94D50538F00E94DC0520F039F4FB
:1009B0009F3F19F426F40C94D2050EF4E095E7FB62
:1009C0000C94CC05E92F0E94F40558F3BA1762077E
:1009D00073078407950720F079F4A6F50C941606A2
:1009E0000EF4E0950B2EBA2FA02D0B01B90190014A
:1009F0000C01CA01A0011124FF27591B99F0593F8E
:100A000050F4503E68F11A16F040A22F232F342FD5
:100A10004427585FF3CF469537952795A795F04023
:100A20005395C9F77EF41F16BA0B620B730B840B38
:100A3000BAF09150A1F0FF0FBB1F661F771F881FF0
:100A4000C2F70EC0BA0F621F731F841F48F4879548
:100A500077956795B795F7959E3F08F0B0CF93953A
:100A6000880F08F09927EE0F9795879508950E94B3
:100A7000A80508F481E008950E94FC0588F09F57BE
:100A800098F0B92F9927B751B0F0E1F0660F771FB2
:100A9000881F991F1AF0BA95C9F714C0B13091F0A8
:100AA0000E941606B1E008950C941606672F782F61
:100AB0008827B85F39F0B93FCCF38695779567956D
:100AC000B395D9F73EF490958095709561957F4FD9
:100AD0008F4F9F4F0895E89409C097FB3EF490957F
:100AE0008095709561957F4F8F4F9F4F9923A9F007
:100AF000F92F96E9BB279395F69587957795679596
:100B0000B795F111F8CFFAF4BB0F11F460FF1BC0D9
:100B10006F5F7F4F8F4F9F4F16C0882311F096E96C
:100B200011C0772321F09EE8872F762F05C066231A
:100B300071F096E8862F70E060E02AF09A95660FD3
:100B4000771F881FDAF7880F9695879597F908958C
:100B5000990F0008550FAA0BE0E8FEEF16161706CE
:100B6000E807F907C0F012161306E407F50798F036
:100B7000621B730B840B950B39F40A2661F0232B4F
:100B8000242B252B21F408950A2609F4A140A695CB
:100B90008FEF811D811D089597F99F6780E870E0B0
:100BA00060E008959FEF80EC089500240A941616E3
:100BB000170618060906089500240A94121613064B
:100BC000140605060895092E0394000C11F48823D9
:100BD00052F0BB0F40F4BF2B11F460FF04C06F5FF5
:100BE0007F4F8F4F9F4F089557FD9058440F551FCB
:100BF00059F05F3F71F04795880F97FB991F61F09F
:100C00009F3F79F087950895121613061406551F15
:100C1000F2CF4695F1DF08C0161617061806991F81
:100C2000F1CF86957105610508940895E894BB2776
:100C300066277727CB0197F908950E94A80508F445
:100C40008FEF08950E9435060C94E3050E94D505A8
:100C500038F00E94DC0520F0952311F00C94CC05AF
:100C60000C94D20511240C9417060E94F40570F31D
:100C7000959FC1F3950F50E0551F629FF001729F41
:100C8000BB27F00DB11D639FAA27F00DB11DAA1F50
:100C9000649F6627B00DA11D661F829F2227B00D9D
:100CA000A11D621F739FB00DA11D621F839FA00D28
:100CB000611D221F749F3327A00D611D231F849F78
:100CC000600D211D822F762F6A2F11249F575040CF
:100CD0009AF0F1F088234AF0EE0FFF1FBB1F661F4A
:100CE000771F881F91505040A9F79E3F510580F013
:100CF0000C94CC050C9417065F3FE4F3983ED4F3B4
:100D0000869577956795B795F795E7959F5FC1F7B6
:100D1000FE2B880F911D9695879597F908950E944F
:100D2000A805880B990B0895A1E21A2EAA1BBB1BDC
:100D3000FD010DC0AA1FBB1FEE1FFF1FA217B307A7
:100D4000E407F50720F0A21BB30BE40BF50B661FBD
:100D5000771F881F991F1A9469F760957095809581
:100D600090959B01AC01BD01CF010895EE0FFF1FCF
:0C0D70000590F491E02D0994F894FFCF59
:100D7C0000000000ED028700570156014143205648
:100D8C006F6C74616765006E616E00696E66006FF2
:040D9C007666000077
:00000001FF
